:100000001A308A008E2A00000A108A100A110B3E4C
:1000100003188A0A820000340034003400340034AB
:10002000003400345F3400340034003407340034CA
:100030000734003414347F3414347F3414342434BB
:100040002A347F342A341234233413340834643489
:100050006234363449345634203450340034083451
:1000600007340334003400341C3422344134003467
:100070000034413422341C3400342A341C347F349C
:100080001C342A34083408343E340834083400342C
:100090008034703430340034083408340834083480
:1000A00008340034003460346034003420341034B8
:1000B0000834043402343E345134493445343E3437
:1000C000003442347F34403400347234493449348B
:1000D000493446342134413449344D3433341834AE
:1000E000143412347F3410342734453445344534C5
:1000F00039343C344A34493449343134413421347C
:1001000011340934073436344934493449343634E7
:1001100046344934493429341E340034003414340C
:1001200000340034003440343434003400340034BB
:100130000834143422344134143414341434143450
:100140001434003441342234143408340234013479
:100150005934093406343E3441345D3459344E3414
:100160007C341234113412347C347F3449344934B1
:10017000493436343E3441344134413422347F34BE
:100180004134413441343E347F3449344934493474
:1001900041347F3409340934093401343E34413464
:1001A0004134513473347F340834083408347F3494
:1001B000003441347F3441340034203440344134FD
:1001C0003F3401347F3408341434223441347F34D2
:1001D00040344034403440347F3402341C340234E0
:1001E0007F347F340434083410347F343E34413457
:1001F000413441343E347F340934093409340634FF
:100200003E344134513421345E347F34093419345E
:10021000293446340A148A100A11820726344934D4
:10022000493449343234033401347F3401340334E3
:100230003F344034403440343F341F342034403461
:1002400020341F343F344034383440343F34633436
:1002500014340834143463340334043478340434E8
:1002600003346134593449344D34433400347F34D9
:1002700041344134413402340434083410342034DD
:1002800000344134413441347F3404340234013485
:100290000234043440344034403440344034003478
:1002A000033407340834003420345434543478345C
:1002B00040347F342834443444343834383444347B
:1002C00044344434283438344434443428347F3477
:1002D00038345434543454341834003408347E34AC
:1002E000093402341834A434A4349C3478347F3470
:1002F0000834043404347834003444347D344034D5
:1003000000342034403440343D3400347F341034E1
:10031000283444340034003441347F3440340034D1
:100320007C3404347834043478347C340834043431
:100330000434783438344434443444343834FC3469
:10034000183424342434183418342434243418341D
:10035000FC347C34083404340434083448345434D1
:10036000543454342434043404343F344434243472
:100370003C344034403420347C341C342034403409
:1003800020341C343C344034303440343C34443425
:1003900028341034283444344C349034903490341D
:1003A0007C344434643454344C344434003408349D
:1003B00036344134003400340034773400340034AF
:1003C0000034413436340834003402340134023409
:1003D0000434023450294F25C5215400C526C222B9
:1003E00044224522A029D929D4224D002D10D422FF
:1003F0004D284529412A5529451D200043002D102F
:10040000C82ACD24C424D42C3A10000125002D1074
:10041000D424CD223A1000013A003A002D10C42015
:10042000D4223A1000012F002F193000D4224D2879
:100430004529412A55294510CD20581D0001AD16EA
:10044000AD16AD16AD16AD16AD162D1F2010000160
:100450004300C82ACD24C424D42CA026412C3A0021
:10046000AD16AD16AD16AD16AD16AD162D1F20107E
:1004700000012500D4224D284529412A552945103F
:100480005528C420D42244002D1FA020F632F2307B
:10049000E7323A1000014300C82ACD24C424D42CEA
:1004A000A02A5022412A452200012D1FA020F63209
:1004B000F230E7323A10000125002010202AC5262C
:1004C000D022D220D42AD2222010201020100000C6
:1004D0002010201020102010C82ACD24C424D42C91
:1004E0002010201000012010CD27CE24D427D224A4
:1004F000CE23A029D929D4224D100001201020108C
:10050000201020102010201020102010201020106B
:1005100000003A003A002C1000012F002F0020109C
:10052000C8244724202AC526D022D220D42AD22269
:10053000201000012010201020102010201020106A
:1005400020102010201020100001AD16BA162D1D0D
:10055000AD162C10AD16AF16AD17AD1600013E004E
:100560003C003A003A002C1000012F002F003A0006
:100570003A002C1000012F002F0020102024C92346
:100580004810C82ACD24C424D42C201020100001E7
:1005900020102010201020102010201020102010DB
:1005A000201020100001AD16BA162D1DAD162C100E
:1005B000AD16AF16AD17AD1600013C003E003A0077
:1005C0003A002C1000012F002F0094138C11831679
:1005D0005708831293000230941BF52A8C1DEE2AD3
:1005E00000308316111B01308312F80008008316B7
:1005F000D60111141118FA2A831221088316D70084
:100600008312E52283165608D7008312E52283164B
:100610005508D7008312E5228316111511190E2BE8
:1006200083120800831644088312A200831645082B
:100630008312A100AE308316D5008312F722D53085
:100640008316D5008312F72280308316D5008312DB
:10065000F722A8308316D5008312F7223F30831685
:10066000D5008312F722D3308316D5008312F722E8
:100670008316D5018312F72240308316D5008312EA
:10068000F7228D308316D5008312F7228316440B90
:100690004F2B1030D5008312F722532B83161430C2
:1006A000D5008312F72220308316D5008312F7225B
:1006B0008316D5018312F722A1308316D500831249
:1006C000F722C8308316D5008312F722DA3083165A
:1006D000D5008312F72212308316D5008312F72239
:1006E00081308316D5008312F7228316440B7E2BAC
:1006F0009F30D5008312F722822B8316CF30D5008E
:100700008312F722D9308316D5008312F72283167D
:10071000440B902B2230D5008312F722942B8316A2
:10072000F130D5008312F722DB308316D500831217
:10073000F72240308316D5008312F722A4308316A7
:10074000D5008312F722A6308316D5008312F72234
:100750002E308316D5008312F722AF308316D500D2
:100760008312F7228A150A16FA2A83168801490885
:100770008312880083160911831209151030F700BF
:10078000F70BC02B000083160911831209113130B9
:10079000F700F70BC92BCC2B080083160910831226
:1007A000091083164608C9008312B5230800C93012
:1007B0008400831300080319EA2B0630F800F701C0
:1007C000F70BE02BF80BDF2B7B30F700F70BE62B5A
:1007D000800BDD2B08008316091183120911831683
:1007E000091083120910831689108312891038307A
:1007F0008316C6008312CD230C308316C6008312E5
:10080000CD2301308316C6008312CD230230831618
:10081000C9008312D72306308316C6008312CD2366
:100820008A150A16FF2A0B08F7008B138316450852
:10083000831203178D0083160313460883120317D0
:100840008C0083168C130C1555308D00AA308D004A
:100850008C148C18292C0C117708831203138B0429
:1008600008001413831691159119342C77189112DE
:10087000771C91161116111A3B2C83121308F800DD
:100880000800831611141118432CD030D70083129E
:10089000E5228316D7018312E5228316911491185D
:1008A0004F2CD130D7008312E5220130F7003124DC
:1008B0007808AB000130F70031247808AC00013033
:1008C000F70031247808AD000130F70031247808B2
:1008D000B1000130F70031247808AE000130F70094
:1008E00031247808AF00F70131247808B00083166E
:1008F00011151119792C83128A150A16242BF70168
:10090000F8018316560803105718F707F70CF80C70
:10091000D718F707F70CF80C5719F707F70CF80C6E
:10092000D719F707F70CF80C571AF707F70CF80C5C
:10093000D71AF707F70CF80C571BF707F70CF80C4A
:10094000D71BF707F70CF80C831208002B0EF700E3
:100950000F30F70577088316C500D6000A30D70098
:1009600083127F2478088316C40083122B080F3962
:10097000831644078312AB002C0EF7000F30F705E7
:1009800077088316C500D6000A30D70083127F246B
:1009900078088316C40083122C080F398316440785
:1009A0008312AC002D0EF7000F30F7057708831681
:1009B000C500D6000A30D70083127F24780883163A
:1009C000C40083122D080F39831644078312AD002B
:1009D0002E0EF7000F30F70577088316C500D600F6
:1009E0000A30D70083127F2478088316C40083124C
:1009F0002E080F39831644078312AE002F0EF7001E
:100A00000F30F70577088316C500D6000A30D700E7
:100A100083127F2478088316C40083122F080F39AD
:100A2000831644078312AF00300EF7000F30F7052E
:100A300077088316C500D6000A30D70083127F24BA
:100A400078088316C400831230080F3983164407D0
:100A50008312B0008A150A16292B861B7B2D1030B5
:100A6000F700F70B312D0000861B792DBF0A3F08D8
:100A7000053C0319BF0121308316D5008312F722EC
:100A80008316D5018312F7227F308316D500831297
:100A9000F72222308316D5008312F7228316D50160
:100AA0008312F72207308316D5008312F7228316AC
:100AB00011141118592D831221088316D70083129F
:100AC000E52240308316D7008312E5228316C50144
:100AD000C4014508033C031C752DD7018312E52290
:100AE0008316C40A0319C50A692D11151119762D2B
:100AF0008312861F792D8A150A162E2B061A872D2A
:100B00001030F700F70B822D0000061EC001061EF4
:100B1000872D8A150A16332B8316091083120914A0
:100B200083164808C9008312B52308000B088316F2
:100B3000C50083128B13831603178C170C14000047
:100B400000000313C51FA72D83128B178316831272
:100B500003170C087F390319082E83160313C500E9
:100B6000831203170D0883160313C600831203179D
:100B70000F0883160313C7004508C80083128C258D
:100B800083164608831203178D0083160313470844
:100B9000831203178F0003130B088316C8008312F8
:100BA0008B13831603178C170C140000000003131B
:100BB000C81FDD2D83128B178316831203170C0DAC
:100BC0000E0D7F390319082E83160313C5008312F7
:100BD00003170D0883160313C600831203170F08AB
:100BE00083160313C7004508C80083128C2583169B
:100BF0004608831203178D008316031347088312D8
:100C000003178F008D0A03198F0A0313962D0317FC
:100C10000313080080308316C6008312CD235D3095
:100C200003178D0002308F0003139625C030831602
:100C3000C6008312CD23683003178D0002308F0069
:100C40000313962594308316C6008312CD23733088
:100C500003178D0002308F0003139625D4308316BE
:100C6000C6008312CD237E3003178D0002308F0023
:100C7000031396258A150A16572B83165508F80173
:100C800054020318462E5408F700522EF70108307C
:100C9000D600D40DF70D550877020318F700F80DAC
:100CA000D60B492E831208008316C801C7014808D5
:100CB0004602031C752E031D612E450847020318CA
:100CC000752E0130C9008312D723861F6D2E061F93
:100CD0006D2E861E6D2E061A702E8316752E8312AB
:100CE0008316C70A0319C80A572E831208008316F1
:100CF000061006108312061019308316C9008312DD
:100D0000D72383160610831206142930F700F70B39
:100D1000872E00008316061483128A150A165E2B8E
:100D20008E018F018E0115309000831606148312F8
:100D30000618B12E0F08FA000E08F7000F087A0205
:100D4000031D9A2E77088316C4007A08C500C508CB
:100D50000319AC2E8312B12E4408633C0318962E5F
:100D600083120F08FA000E08F7000F087A02031D1D
:100D7000B12E77088316C4007A08C500C508031D84
:100D8000C52E4408633C0318C92E0030F800032F19
:100D9000032F83128E018F018E0183160614831296
:100DA000061CE92E0F08FA000E08F7000F087A0259
:100DB000031DD22E77088316C4007A08C500C50823
:100DC0000319E42E8312E92E4408633C0318CE2E47
:100DD00083120F08FA000E08F7000F087A02031DAD
:100DE000E92E77088316C4007A08C500C508031DDC
:100DF000FD2E4408633C0318012F0030F800032F38
:100E0000032F0130F80083128A150A16632B83160C
:100E1000C5018312A51C0C2F8316C4014408073C8E
:100E2000031C7C2F83128E018F018E018316061402
:100E300083120618352F0F08FA000E08F7000F0866
:100E40007A02031D1B2F77088316C6007A08C70095
:100E5000C708031D2F2F4608643C0318332F831245
:100E6000A514352F8316172F83128E018F018E0143
:100E7000831606148312061C572F0F08FA000E085B
:100E8000F7000F087A02031D3D2F77088316C6006E
:100E90007A08C700C708031D512F4608643C031891
:100EA000552F8312A514572F8316392F83120F083D
:100EB000FA000E08F7000F087A02031D572F770873
:100EC0008316C6007A08C700C708031D6B2F4608A3
:100ED000323C03187A2F4408073CC6000130F70063
:100EE0004608F8000319782F0310F70DF80B742F3C
:100EF0007708C504C40A0E2F4508F80083120800BD
:100F000083164508153C031C882F4608083C031C23
:100F1000912F45088312A300831646088312A4006C
:100F2000831683120800780883164508D4006430BD
:100F3000D50083123D2677088316C5007808303027
:100F4000031DA92FC61CB42FC619B42F461A203072
:100F5000AC2FC61146124614F8077808D1008A153E
:100F600083122D258A1183164508D4000A30D50036
:100F700083123D2677088316C50078083030031D9C
:100F8000C72FC619CF2F461CCF2F461A2030F8077F
:100F90007808D1008A1583122D258A1183163030E6
:100FA000C5074508D1008A1583122D258A1108002E
:100FB00083164708831203178D0083168C130C14B5
:0A0FC00083120C08F8000313080068
:1010000096308316C6008A118312CD238A1566088E
:101010008316D4000A30D5008A1183123D268A1522
:10102000303078078316C500C8008A1183128C25DA
:101030008A1566088316D4000A30D5008A118312F7
:101040003D268A15303077078316C500C8008A11FF
:1010500083128C258A15893003178D0002308F008A
:101060008A11031396258A1567088316D4000A305F
:10107000D5008A1183123D268A15303078078316F1
:10108000C500C8008A1183128C258A15670883164B
:10109000D4000A30D5008A1183123D268A153030DB
:1010A00077078316C500C8008A1183128C258A151C
:1010B0008A3003178D0002308F008A1103139625A2
:1010C0008A1568088316D4000A30D5008A11831265
:1010D0003D268A15303078078316C500C8008A116E
:1010E00083128C258A1568088316D4000A30D5002F
:1010F0008A1183123D268A15303077078316C50082
:10110000C8008A1183128C258A158B3003178D0035
:1011100002308F008A11031396258A1569088316F9
:10112000D4000A30D5008A1183123D268A1530304A
:1011300078078316C500C8008A1183128C258A158A
:1011400069088316D4000A30D5008A1183123D261F
:101150008A15303077078316C500C8008A118312BC
:101160008C258A158D3003178D0002308F008A116F
:10117000031396258A156A088316D4000A30D50011
:101180008A1183123D268A15303078078316C500F0
:10119000C8008A1183128C258A156A088316D40028
:1011A0000A30D5008A1183123D268A153030770720
:1011B0008316C500C8008A1183128C258A158E30CB
:1011C00003178D0002308F008A11031396258A15AC
:1011D0006B088316D4000A30D5008A1183123D268D
:1011E0008A15303078078316C500C8008A1183122B
:1011F0008C258A156B088316D4000A30D5008A1115
:1012000083123D268A15303077078316C500C80043
:101210008A1183128C258A15D4308316C6008A1150
:101220008312CD238A157E308316C8008A1183125B
:101230008C258A15320843020318832980308316CF
:10124000C6008A118312CD238A158F3003178D00B3
:1012500002308F008A11031396258A15C030831639
:10126000C6008A118312CD238A159A3003178D0088
:1012700002308F008A11031396258A15D630831603
:10128000C6008A118312CD238A15A53003178D005D
:1012900002308F008A11031396258A158316C40124
:1012A0004408063C031C8229C3304407C500C6001D
:1012B0008A118312CD238A15AF3003178D000230B7
:1012C0008F008A11031396258A1583164408D03C93
:1012D000C500C6008A118312CD238A15B0300317CA
:1012E0008D0002308F008A11031396258A1583160C
:1012F000C6011430C5008A11831254268A1583163C
:10130000C40A5029831232084302031C932AD630A0
:101310008316C6008A118312CD238A156C088316A2
:10132000D4000A30D5008A1183123D268A15303048
:1013300078078316C500C8008A1183128C258A1588
:101340006C088316D4000A30D5008A1183123D261A
:101350008A15303077078316C500C8008A118312BA
:101360008C258A15B13003178D0002308F008A1149
:10137000031396258A156D088316D4000A30D5000C
:101380008A1183123D268A15303078078316C500EE
:10139000C8008A1183128C258A156D088316D40023
:1013A0000A30D5008A1183123D268A15303077071E
:1013B0008316C500C8008A1183128C258A15B230A5
:1013C00003178D0002308F008A11031396258A15AA
:1013D0006E088316D4000A30D5008A1183123D2688
:1013E0008A15303078078316C500C8008A11831229
:1013F0008C258A156E088316D4000A30D5008A1110
:1014000083123D268A15303077078316C500C80041
:101410008A1183128C258A15B33003178D00023090
:101420008F008A11031396258A156F088316D4003E
:101430000A30D5008A1183123D268A15303078078C
:101440008316C500C8008A1183128C258A156F087F
:101450008316D4000A30D5008A1183123D268A15DE
:10146000303077078316C500C8008A1183128C2597
:101470008A15B53003178D0002308F008A110313CF
:1014800096258A1570088316D4000A30D5008A1173
:1014900083123D268A15303078078316C500C800B0
:1014A0008A1183128C258A1570088316D4000A309D
:1014B000D5008A1183123D268A15303077078316AE
:1014C000C500C8008A1183128C258A15B63003170F
:1014D0008D0002308F008A11031396258A1571083A
:1014E0008316D4000A30D5008A1183123D268A154E
:1014F000303078078316C500C8008A1183128C2506
:101500008A1571088316D4000A30D5008A11831217
:101510003D268A15303077078316C500C8008A112A
:1015200083128C258A158A150A16572B9630831636
:10153000C6008A118312CD238A1572088316D4003F
:101540000A30D5008A1183123D268A15303078077B
:101550008316C500C8008A1183128C258A1572086B
:101560008316D4000A30D5008A1183123D268A15CD
:10157000303077078316C500C8008A1183128C2586
:101580008A15B73003178D0002308F008A110313BC
:1015900096258A1573088316D4000A30D5008A115F
:1015A00083123D268A15303078078316C500C8009F
:1015B0008A1183128C258A1573088316D4000A3089
:1015C000D5008A1183123D268A153030770783169D
:1015D000C500C8008A1183128C258A15B8300317FC
:1015E0008D0002308F008A11031396258A15740826
:1015F0008316D4000A30D5008A1183123D268A153D
:10160000303078078316C500C8008A1183128C25F4
:101610008A1574088316D4000A30D5008A11831203
:101620003D268A15303077078316C500C8008A1119
:1016300083128C258A15B93003178D0002308F0074
:101640008A11031396258A1575088316D4000A306B
:10165000D5008A1183123D268A153030780783160B
:10166000C500C8008A1183128C258A157508831657
:10167000D4000A30D5008A1183123D268A153030F5
:1016800077078316C500C8008A1183128C258A1536
:10169000BB3003178D0002308F008A11031396258B
:1016A0008A1576088316D4000A30D5008A11831271
:1016B0003D268A15303078078316C500C8008A1188
:1016C00083128C258A1576088316D4000A30D5003B
:1016D0008A1183123D268A15303077078316C5009C
:1016E000C8008A1183128C258A15BC3003178D001F
:1016F00002308F008A11031396258A157B08831602
:10170000D4000A30D5008A1183123D268A15303064
:1017100078078316C500C8008A1183128C258A15A4
:101720007B088316D4000A30D5008A1183123D2627
:101730008A15303077078316C500C8008A118312D6
:101740008C258A15D4308316C6008A118312CD23C6
:101750008A157E308316C8008A1183128C258A155B
:101760003408420203181A2C80308316C6008A11EE
:101770008312CD238A15BD3003178D0002308F00F0
:101780008A11031396258A15C0308316C6008A1164
:101790008312CD238A15C83003178D0002308F00C5
:1017A0008A11031396258A15D6308316C6008A112E
:1017B0008312CD238A15D33003178D0002308F009A
:1017C0008A11031396258A158316C4014408063C22
:1017D000031C192C4408093CC03EC500C6008A11F0
:1017E0008312CD238A15DD3003178D0002308F0060
:1017F0008A11031396258A15CA3083164407C5003B
:10180000C6008A118312CD238A15DE3003178D009E
:1018100002308F008A11031396258A158316C6019C
:101820001430C5008A11831254268A158316C40AFF
:10183000E62B831234084202031C2A2DD63083166D
:10184000C6008A118312CD238A157C088316D40022
:101850000A30D5008A1183123D268A153030780768
:101860008316C500C8008A1183128C258A157C084E
:101870008316D4000A30D5008A1183123D268A15BA
:10188000303077078316C500C8008A1183128C2573
:101890008A15DF3003178D0002308F008A11031381
:1018A00096258A157D088316D4000A30D5008A1142
:1018B00083123D268A15303078078316C500C8008C
:1018C0008A1183128C258A157D088316D4000A306C
:1018D000D5008A1183123D268A153030770783168A
:1018E000C500C8008A1183128C258A15E0300317C1
:1018F0008D0002308F008A11031396258A157E0809
:101900008316D4000A30D5008A1183123D268A1529
:10191000303078078316C500C8008A1183128C25E1
:101920008A157E088316D4000A30D5008A118312E6
:101930003D268A15303077078316C500C8008A1106
:1019400083128C258A15E13003178D0002308F0039
:101950008A11031396258A1583164008D4000A308D
:10196000D5008A1183123D268A15303078078316F8
:10197000C500C8008A1183128C258A158316400879
:10198000D4000A30D5008A1183123D268A153030E2
:1019900077078316C500C8008A1183128C258A1523
:1019A000E33003178D0002308F008A110313962550
:1019B0008A1583164108D4000A30D5008A11831293
:1019C0003D268A15303078078316C500C8008A1175
:1019D00083128C258A1583164108D4000A30D5005D
:1019E0008A1183123D268A15303077078316C50089
:1019F000C8008A1183128C258A15E43003178D00E4
:101A000002308F008A11031396258A158316420827
:101A1000D4000A30D5008A1183123D268A15303051
:101A200078078316C500C8008A1183128C258A1591
:101A300083164208D4000A30D5008A1183123D264D
:101A40008A15303077078316C500C8008A118312C3
:101A50008C258A158A150A16562B831651081F3CA9
:101A60000318362D51087E3C0318382D3F30D10025
:101A70002130D5008A118312F7228A150130230202
:101A80008316D4000630D6005408D7008A1183127A
:101A90007F248A1578088316D400D5008A11831212
:101AA000F7228A15013023028316D4000630D600AF
:101AB0005408D7008A1183127F248A1504307807CE
:101AC0008316D400D5008A118312F7228A1522309A
:101AD0008316D5008A118312F7228A150130240259
:101AE0008316D400D5008A118312F7228A1501309B
:101AF00024028316D400D5008A118312F7228A1596
:101B0000831611141118822D831221088316D70011
:101B10008A118312E5228A1540308316D7008A1174
:101B20008312E5228A158316D3015308043C031C53
:101B3000CF2D5108523C031CB22D20305102D5004C
:101B4000D6000530D7008A1183127F248A158316A8
:101B5000530878078A11831204208A15F800831627
:101B6000D200C62D53305102D500D6000530D70023
:101B70008A1183127F248A158316530878078A11E5
:101B800083120A218A15F8008316D2005208D70062
:101B90008A118312E5228A158316D30A952D111511
:101BA0001119D02D831223088316D4001530D500C7
:101BB0008A1183123D268A1501307707A300251C60
:101BC000E72D230BE72D24080739013EA400080068
:101BD0000B088316C40083128B13831603178C170C
:101BE0000C14000000000313C41FF92D83128B177F
:101BF0008316831203170C087F3903195A2E831694
:101C00000313C400831203170D0883160313C500C2
:101C1000831203170F0883160313C6004408D1006C
:101C200083122D2583164508831203178D00831612
:101C300003134608831203178F0003130B08831640
:101C4000C70083128B13831603178C170C14000024
:101C500000000313C71F2F2E83128B1783168312C6
:101C600003170C0D0E0D7F3903195A2E831603131B
:101C7000C400831203170D0883160313C5008312D3
:101C800003170F0883160313C6004408D1008312FC
:101C90002D2583164508831203178D008316031321
:101CA0004608831203178F008D0A03198F0A031346
:101CB000E82D03170313080021308316D5008A117D
:101CC0008312F7228A15013023028316C8000630DA
:101CD000D6004808D7008A1183127F248A15780815
:101CE0008316C800D5008A118312F7228A150130A5
:101CF00023028316C8000630D6004808D7008A1190
:101D000083127F248A15043078078316C800D50013
:101D10008A118312F7228A1522308316D5008A1180
:101D20008312F7228A15013024028316C800D500D9
:101D30008A118312F7228A15013024028316C80003
:101D4000D5008A118312F7228A15831611141118EF
:101D5000A72E831221088316D7008A118312E52249
:101D60008A1540308316D7008A118312E5228A151E
:101D70008316C7014708043C031CCF2E47084407BD
:101D800084008313451883170008C6004608D7004F
:101D90008A118312E5228A158316C70ABA2E1115F5
:101DA0001119D02E831223088316D4001530D500C4
:101DB0008A1183123D268A1501307707A300251C5E
:101DC000E72E230BE72E24080739013EA400080064
:101DD0008A1107278A157808B4008A1107278A15FF
:101DE0007808B5008A1107278A157808B2008A1189
:101DF00007278A157808B3008A1107278A157808FB
:101E0000B600900135083407320733073602031D48
:101E1000F32F08308316C5000130C6008A118312E3
:101E200080278A15EA3003178D0001308F000313D5
:101E3000E82504308316C5000230C6008A118312DB
:101E400080278A15EE3003178D0001308F000313B1
:101E5000E82501308316C5000430C6008A118312BC
:101E600080278A15F63003178D0001308F00031389
:101E7000E82511308316C5000430C6008A1183128C
:101E800080278A1532088316C5001130C6008A11D2
:101E9000831293278A158316C5012630C400831246
:101EA0005C26FE3003178D0001308F000313E825F8
:101EB00001308316C5000530C6008A1183128027C1
:101EC0008A15FF3003178D0001308F000313E825BA
:101ED00011308316C5000530C6008A118312802791
:101EE0008A1534088316C5001130C6008A11831282
:101EF00093278A15063003178D0002308F000313D5
:101F0000E82501308316C5000730C6008A11831208
:101F100080278A15073003178D0002308F000313C6
:101F2000E8252D088316C5000130C6008A118312EA
:101F300093278A150C3003178D0002308F0003138E
:101F4000E8252C088316C5000130C6008A118312CB
:101F500093278A150D3003178D0002308F0003136D
:101F6000E8252B088316C5000130C6008A118312AC
:101F700093278A1501308316C5000830C6008A11E0
:101F8000831280278A150E3003178D0002308F00D0
:101F90000313E8252E088316C5000130C6008A11F8
:101FA000831293278A15133003178D0002308F0098
:101FB0000313E8252F088316C5000130C6008A11D7
:101FC000831293278A15143003178D0002308F0077
:101FD0000313E82530088316C5000130C6008A11B6
:0C1FE000831293278A158A150A166A2BB3
:102000002B088316D4000330D5000A1283123D2614
:102010000A16F708031D352844080D3C031C352813
:1020200044088316C500831232088316C6000A12BC
:10203000831213240A16203044078316C400C500F7
:10204000831234088316C6000A12831213240A1658
:102050008316C6016430C5000A12831254260A167C
:10206000C40A44080E3C0319C4018A150A166D2BD4
:1020700032084302031CB52840308316C500831282
:102080002D088316C6000A12831213240A16413043
:102090008316C50083122C088316C6000A12831209
:1020A00013240A1642308316C50083122B088316A8
:1020B000C6000A12831213240A1643308316C50081
:1020C00083122E088316C6000A12831213240A16DE
:1020D00044308316C50083122F088316C6000A12E7
:1020E000831213240A1645308316C5008312300864
:1020F0008316C6000A12831213240A164830831668
:10210000C7000A128312D8270A167808EC00493053
:102110008316C7000A128312D8270A167808ED0022
:102120004A308316C7000A128312D8270A16780885
:10213000EE004B308316C7000A128312D8270A1606
:102140007808EF004C308316C7000A128312D82794
:102150000A167808F0004D308316C7000A12831261
:10216000D8270A167808F1002D2948308316C500B3
:1021700083122D088316C6000A12831213240A162E
:1021800049308316C50083122C088316C6000A1234
:10219000831213240A164A308316C50083122B08B3
:1021A0008316C6000A12831213240A164B308316B4
:1021B000C50083122E088316C6000A128312132448
:1021C0000A164C308316C50083122F088316C600EA
:1021D0000A12831213240A164D308316C500831287
:1021E00030088316C6000A12831213240A164030E0
:1021F0008316C7000A128312D8270A167808E60049
:1022000041308316C7000A128312D8270A167808AD
:10221000E70042308316C7000A128312D8270A1635
:102220007808E80043308316C7000A128312D827C3
:102230000A167808E90044308316C7000A12831290
:10224000D8270A167808EA0045308316C7000A1214
:102250008312D8270A167808EB008A150A16702B05
:1022600034084202031CAF2950308316C500831284
:102270002D088316C6000A12831213240A16513041
:102280008316C50083122C088316C6000A12831217
:1022900013240A1652308316C50083122B088316A6
:1022A000C6000A12831213240A1653308316C5007F
:1022B00083122E088316C6000A12831213240A16EC
:1022C00054308316C50083122F088316C6000A12E5
:1022D000831213240A1655308316C5008312300862
:1022E0008316C6000A12831213240A165830831666
:1022F000C7000A128312D8270A167808FC00593042
:102300008316C7000A128312D8270A167808FD0020
:102310005A308316C7000A128312D8270A16780883
:10232000FE005B308316C7000A128312D8270A16F4
:1023300078088316C0005C30C7000A128312D827C1
:102340000A1678088316C1005D30C7000A1283128E
:10235000D8270A1678088316C200282A8312583014
:102360008316C50083122D088316C6000A12831235
:1023700013240A1659308316C50083122C088316BD
:10238000C6000A12831213240A165A308316C50097
:1023900083122B088316C6000A12831213240A160E
:1023A0005B308316C50083122E088316C6000A12FE
:1023B000831213240A165C308316C50083122F087B
:1023C0008316C6000A12831213240A165D30831680
:1023D000C500831230088316C6000A128312132424
:1023E0000A1650308316C7000A128312D8270A161D
:1023F0007808F20051308316C7000A128312D827DA
:102400000A167808F30052308316C7000A128312A6
:10241000D8270A167808F40053308316C7000A122A
:102420008312D8270A167808F50054308316C7009F
:102430000A128312D8270A167808F6005530831638
:10244000C7000A128312D8270A167808FB008316E1
:1024500083128A150A16732B861A3E2A1030F7004B
:10246000F70B302A0000861A3C2AC30A4308333C83
:10247000031D3C2A1E30C300861E3C2A061B502A20
:102480001030F700F70B422A0000061B4E2AC30348
:1024900043081D3C031D4E2A3230C300061F4E2A3E
:1024A0008A150A16792B01308316C500C6000A1258
:1024B000831280270A16163003178D0002308F0012
:1024C0000A128A150313E8250A168A1101308316A9
:1024D000C5000330C6000A12831280270A161F3077
:1024E00003178D0002308F000A128A150313E825A6
:1024F0000A168A1143088316C5001130C6000A1255
:10250000831293270A168316C5012630C4000A12C7
:102510008A1583125C260A168A11283003178D004B
:1025200002308F000A128A150313E8250A168A1151
:102530008A150A167C2B861AAD2A1030F700F70B85
:102540009F2A0000861AAB2AC20A4208513C031D8A
:10255000AB2A3C30C200861EAB2A061BBF2A1030B5
:10256000F700F70BB12A0000061BBD2AC203420880
:102570003B3C031DBD2A5030C200061FBD2A8A15F0
:102580000A16842B01308316C500C6000A12831276
:1025900080270A16293003178D0002308F000A1297
:1025A0008A150313E8250A168A1101308316C5001F
:1025B0000330C6000A12831280270A163030031730
:1025C0008D0002308F000A128A150313E8250A16BF
:1025D0008A1142088316C5001130C6000A12831200
:1025E00093270A16393003178D0002308F000A1224
:1025F0008A150313E8250A168A118A150A16872BED
:102600008E30F70083164B08F8004A08F900FA01EB
:10261000F808031D152B7908F800F9010830F702B6
:10262000F808031D152BF7011D2B0310F81B1C2B9D
:10263000F90DF80DF703152BF813831208008030FD
:10264000831C252B8316D10683128316D601D7014E
:102650004D08D5005108D5064C080319132CD40099
:10266000F700500803191C2CD4020319B82B031CC3
:10267000762B5108DA00DA175208D9005308D8002F
:10268000D7010310DA0CD90CD80CD70CD40B402B83
:10269000D51F4D2B5614302C561054105616CF30D3
:1026A00084008313452C5612D51B602B541C6B2BB6
:1026B000DA0CD90CD80CD70CF70A03192B2C6B2B7E
:1026C000DA1B6E2B0310D70DD80DD90DDA0DF703D9
:1026D00003192B2C602B5617D82B56134D08D500F9
:1026E000D51F742BDA17242CDA13242C5008D400AD
:1026F000F7004C08D4024D08DA00DA174E08D9006A
:102700004F08D800D7010310DA0CD90CD80CD70C1D
:10271000D40B822BD51F8F2BD614302CD6105410EF
:10272000D616D33084008313452CD612D51BA22B8A
:10273000541CAD2BDA0CD90CD80CD70CF70A0319A2
:102740002B2CAD2BDA1BB02B0310D70DD80DD90DC8
:10275000DA0DF70303192B2CA22BD617D82BD6137F
:102760005108D500D51FB62BDA17242CDA13242CE8
:102770005108DA00DA175208D9005308D800D51FDB
:10278000C52BDA135615302C5611D7015410CF3003
:1027900084008313452CD51BEE2B4D08D500541C0B
:1027A000D82BDA0CD90CD80CD70CF70A03192B2C20
:1027B000D71FE92BD80A031DE92BD90A031DE92BE2
:1027C000DA0A031DE92BDA0CD90CD80CF70A031925
:1027D0002B2C561B6D2BD61BAF2B0D2C8030DA0605
:1027E000DA1FF62B302C5108D500032C4D08D500EC
:1027F000DA08031D032CD908031D032CD808031D78
:10280000032CF701242CDA1B0D2C0310D70DD80D47
:10281000D90DDA0DF70B032C2B2CD51F112CDA1741
:10282000242CDA13242C5008F7005108DA0052083F
:10283000D9005308D800242C4C08F7004D08DA00C2
:102840004E08D9004F08D8005A08F8005908F90076
:102850005808FA00632CF701F801F901FA01632C1A
:10286000D701D809D909DA09D709D70A031D3E2C9F
:10287000D80A031D3E2CD90A0319DA0A56184C2B24
:10288000D6188E2B5619C42BF32B0008D807031C1F
:102890004F2CD90A031D4F2CDA0A03195414840350
:1028A0000008D907031C572CDA0A031954148403AF
:1028B0000008801F803ADA0703185414561A532B65
:1028C000D61A952BCB2B83120800831644080319C4
:1028D0002B2DD000480803192B2DD002031C752C7A
:1028E0007F30D00703182B2D7B2C8130D002031CA6
:1028F0002B2D03192B2D5008F700F801F901FA01CF
:10290000CF014508CE00CE174608CD004708CC00C1
:102910001930D0004B08CC0203189E2C0130CD0298
:1029200003189E2CCE0203189E2CCF0203189E2C57
:10293000CF0ACE0ACD0A4B08CC07D02C4A08CD02CC
:102940000318B92C0130CE020318B92CCF0203189A
:10295000B92CCF0ACE0A4A08CD074B08CC07031C76
:10296000D02CCD0A031DD02CCE0A031DD02CCF0AAB
:10297000D02C49088038CE020318CF2C0130CF026A
:102980000318CF2CCF0A49088038CE074A08CD0754
:10299000031CAD2CCE0A031DAD2CCF0AAD2C7A142E
:1029A000D00BD32CDE2C0310CC0DCD0DCE0DCF0DC6
:1029B0000310FA0DF90DF80DD10D8A2C511CE62CDF
:1029C0000310F80CF90CFA0CD10CE92CF7030319DD
:1029D0002B2DD11B122D0310CC0DCD0DCE0DCF0DF7
:1029E0004B08CC020318FE2C0130CD020318FE2C3C
:1029F000CE020318FE2CCF02031C212D4A08CD0263
:102A00000318092D0130CE020318092DCF02031C33
:102A1000212D49088038CE020318122D0130CF0233
:102A2000031C212DFA0A031D212DF90A031D212D56
:102A3000F80A031D212DF70A03192B2DF80CF90CA8
:102A4000FA0C4508D0004908D006D01F292DF817E8
:102A50002F2DF8132F2DF701F801F901FA01831238
:102A600008008318362DD93084008313F701F8014C
:102A7000F901FA018316D901DA01DB01DC015808FA
:102A80005704560455040319752D2030DD0003103A
:102A9000D10DD20DD30DD40DD90DDA0DDB0DDC0D1A
:102AA00058085C02031D5E2D57085B02031D5E2D56
:102AB00056085A02031D5E2D55085902031C6F2D3E
:102AC0005508D9025608031C560FDA025708031C92
:102AD000570FDB025808031C580FDC020314F70DD4
:102AE000F80DF90DFA0DDD0B472D59088000840A09
:102AF0005A088000840A5B088000840A5C08800011
:102B00008312080004088316C9004808CB00031983
:102B1000152E4708D4004608D3004508D2004408C3
:102B2000D100D801D7012030D6008230D50051081D
:102B30000319072ED90055080319072ED9070318C2
:102B4000A82D7F30D902031C072E0319072EAC2DA8
:102B50008130D9070318072E5908F700F801F90149
:102B6000FA015208DD00DD175308DC005408DB00D1
:102B70001830D900DA015B1CD52D5808FA07031C60
:102B8000C72DF90A031DC72DF80A0319DA175708CC
:102B9000F907031CCE2DF80A0319DA175608D300DB
:102BA000D3175308F8070318DA17DA0DF80CF90CE5
:102BB000FA0CDD0CDC0CDB0C0310D90BBA2D013048
:102BC000F7070318072EF81BEC2DDD0DFA0DF90D94
:102BD000F80DF7030319072EDD1FFD2DFA0A031D5B
:102BE000FD2DF90A031DFD2DF80A031DFD2DF80C1E
:102BF000F90CFA0CF70A0319072E5208DA005608E6
:102C0000DA06DA1F052EF8170B2EF8130B2EF70134
:102C1000F801F901FA017A08C7007908C6007808B6
:102C2000C5007708C400CB0B892D4708D40046089F
:102C3000D3004508D2004408D1005108B63CD10069
:102C4000FA015208D500D2170310D20CD30CD40CC1
:102C5000FA0CF90CF80CF70CD10B242ED51F3B2ED7
:102C6000F709F809F909FA09F70A0319F80A031923
:102C7000F90A0319FA0A7A08C7007908C600780821
:102C8000C5007708C400C71F522EC903C916C4095E
:102C9000C509C609C709C40A0319C50A0319C60A22
:102CA0000319C70A3B30D0009A30CF00CA30CE009B
:102CB000CD010A30CB0048080319C90A8314C43077
:102CC000840083134708D4004608D3004508D20087
:102CD0004408D1005008D8004F08D7004E08D6004D
:102CE0004D08D500831231257808F708031D8F2E73
:102CF0008316480A4B02031D7F2E83128F2E49082C
:102D00000319922E0F394B020319882E0318DA2E5D
:102D1000C91BDA2E491B922E2030D02E8312203070
:102D20008316C905C91EA62EC9124808031DC9036A
:102D30007708C9002D30D1000A128A1583122D257B
:102D40000A168A1183164908F700C90148084B0280
:102D5000031DBA2E7708C9002E30D1000A128A1539
:102D600083122D250A168A1183164908F700203090
:102D7000C90500303030C91ED02EC9124808031DC5
:102D8000C9037708C9002D30D1000A128A158312B1
:102D90002D250A168A1183164908F700C90130301B
:102DA000F7077708D1000A128A1583122D250A1613
:102DB0008A11831683105008D4004F08D3004E08A0
:102DC000D2004D08D100D801D701D6010A30D50074
:102DD000831231257A088316D0007908CF0078084D
:0E2DE000CE007708CD00CB0B5E2E83120800CC
:10300000BA01B901B801B70102308316C500013019
:10301000C6000A128A11831280270A168A153A30CE
:1030200003178D0002308F000A120313E8250A16D9
:10303000C1014108063C031CEB2803308316D6006F
:10304000831241088316D7000A128A1183127F2443
:103050000A168A15013078078316C400C5000330AC
:10306000C6000A128A11831280270A168A15463072
:1030700041078400831300088316C400C5001B3079
:10308000C6000A128A11831293270A168A15033082
:103090008316D600831241088316D7000A128A11BC
:1030A00083127F240A168A15013078078316C4001C
:1030B000C5000530C6000A128A11831280270A163D
:1030C0008A1507304107463E8400831300088316A3
:1030D000C400C5001B30C6000A128A118312932750
:1030E0000A168A15463041078400831300088316A8
:1030F000CB01CA008A11831200238A158316C501E9
:103100000408C4004510831B4514831083123A0839
:103110008316CF00831239088316CE008312380835
:103120008316CD00831237088316CC007A08D300AB
:103130007908D2007808D1007708D0008A1183126C
:103140001F238A15831644088400831345188317A8
:103150007A08C9007908C8007808C7007708C6004F
:10316000073083124107463E84008313000883160C
:10317000CB01CA008A11831200238A158316CB0162
:103180000408CA004B10831B4B1483104908CF005E
:103190004808CE004708CD004608CC007A08D30086
:1031A0007908D2007808D1007708D0008A118312FC
:1031B0001F238A1583164A08840083134B1883172C
:1031C0007A088312BA007908B9007808B80077083D
:1031D000B700C10A19283A088316C70083123908B4
:1031E0008316C600831238088316C5008312370879
:1031F0008316C400CB01CA016030C9008230C80008
:103200008A11831265248A157A08BA007908B900F0
:103210007808B8007708B70001308316C50007307A
:10322000C6000A128A11831280270A168A154430B2
:1032300003178D0002308F000A120313E8250A16C7
:10324000893084003A088316C70083123908831630
:10325000C600831238088316C50083123708831608
:10326000C4000230C8008A11831282258A15831691
:10327000C5012630C4000A1283125C260A164B30A0
:1032800003178D0002308F000A120313E8250A1677
:103290008A150A168E2BBE01BD01BC01BB0103308D
:1032A0008316C5000130C6000A128A1183128027D6
:1032B0000A168A154C3003178D0002308F000A124F
:1032C0000313E8250A16C1014108063C031C362AEF
:1032D00003308316D600831241088316D7000A12E2
:1032E0008A1183127F240A168A1501307807831603
:1032F000C400C5000330C6000A128A118312802759
:103300000A168A15A030410784008313000883162B
:10331000C400C5001B30C6000A128A11831293270D
:103320000A168A1503308316D600831241088316C5
:10333000D7000A128A1183127F240A168A150130D7
:1033400078078316C400C5000530C6000A128A112A
:10335000831280270A168A1507304107A03E840091
:10336000831300088316C400C5001B30C6000A1270
:103370008A11831293270A168A15A0304107840008
:10338000831300088316CB01CA008A11831200231D
:103390008A158316C5010408C4004510831B451413
:1033A000831083123E088316CF0083123D088316D4
:1033B000CE0083123C088316CD0083123B0883168F
:1033C000CC007A08D3007908D2007808D1007708B9
:1033D000D0008A1183121F238A15831644088400A3
:1033E0008313451883177A08C9007908C80078083C
:1033F000C7007708C600073083124107A03E84004B
:10340000831300088316CB01CA008A11831200239C
:103410008A158316CB010408CA004B10831B4B147A
:1034200083104908CF004808CE004708CD00460861
:10343000CC007A08D3007908D2007808D100770848
:10344000D0008A1183121F238A1583164A0884002C
:1034500083134B1883177A088312BE007908BD00C6
:103460007808BC007708BB00C10A64293E088316AF
:10347000C70083123D088316C60083123C088316DA
:10348000C50083123B088316C400CB01CA0160301B
:10349000C9008230C8008A11831265248A157A080F
:1034A000BE007908BD007808BC007708BB00013079
:1034B0008316C5000730C6000A128A1183128027BE
:1034C0000A168A15553003178D0002308F000A1234
:1034D0000313E8250A16893084003E088316C700C6
:1034E00083123D088316C60083123C088316C5006C
:1034F00083123B088316C4000230C8008A1183126D
:1035000082258A155C3003178D0002308F000A1265
:103510000313E8250A168A150A16BB2B03081F3960
:103520008300FF30A000A0152008831687008312B7
:1035300020162008831687000C3093002930831250
:103540009400831694131413FF30930028308312D1
:1035500094000130A300A4002514A510BF01C001F0
:10356000C1014630C2002830C300C401C501E601D4
:10357000E701E801E901EA01EB01EC01ED01EE01EF
:10358000EF01F001F101F201F301F401F501F6019F
:10359000FB01FC01FD01FE018316C001C101C20156
:1035A00003170908C039890003131F129F12003046
:1035B000031788008312870188018901831303138D
:1035C000A6010730A7000530A8000730A900AA010E
:1035D000713083168F000F0883129001F03083162C
:1035E000950081130230C4007A30C5000A128A1196
:1035F0008312122B0A168A150A128A11EB2B0A164D
:103600008A1548308316C30043084D3C031C202B09
:103610004308C500C6010A128A11831213240A1630
:103620008A15103083164307C400C500C6010A126C
:103630008A11831213240A168A158316C30A042BCF
:103640000A128A118312412C0A168A150A128A114B
:10365000A62C0A168A150A128A112D2D0A168A1509
:103660000A128A117E2D0A168A153208430203189F
:103670003B2B0130C000340842020318412B0230BA
:10368000C000C008031D4A2B0A128A110A2E0A160E
:103690008A15572B400B502B0A1200280A16572B5D
:1036A0004008023C031D572B0A12962A0A16BF082F
:1036B000031D752BA5100A128A11772E0A168A157A
:1036C0000A128A11902E0A168A15F80803196B2B14
:1036D0000A12E82E0A168A1100288A158A1138283B
:1036E0008A158A1130298A15E42B3F0B7E2B8A110B
:1036F0002C2A8A158A11532A8A15E42B3F08023C8A
:10370000031D892B8A119B2A8A158A11C22A8A15C0
:10371000E42B3F08033C031DB62B002845080D3C55
:10372000031CB52B46304507F800FA010318FA0AC6
:1037300078088316C4007A08C500831245088316EA
:10374000C7000A128A118312D8270A168A1583160F
:103750004408840083134518831778088000831277
:10376000C50A45080E3C0319C501E42B3F08043C7B
:10377000031DE42B4B2945080D3C031CE42BA03012
:103780004507F800FA010318FA0A78088316C400FE
:103790007A08C5002030831245078316C600C7008B
:1037A0000A128A118312D8270A168A15831644082A
:1037B0008400831345188317780880008312C50A94
:1037C00045080E3C0319C501320843020318EF2BCC
:1037D000201020088316870083120714F52B201071
:1037E000200883168700831207103408420203184A
:1037F0001A2CA010200883168700831287148316C2
:10380000C6013230C5000A128A11831254260A16E4
:103810008A15A0102008831687008312871083164C
:10382000C6013230C5000A128A11831254260A16C4
:103830008A152A2CA010200883168700831287106F
:103840008316C6016430C5000A128A1183125426F9
:0A3850000A168A158316202B630068
:04400E00C22CFF3F82
:00000001FF
;PIC16F887
;CRC=6102  CREATED="19-Thg6-24 19:01"
